:10000000BBC00000D4C00000D2C00000D0C00000BF
:10001000CEC00000CCC00000CAC00000C8C00000B4
:10002000C6C00000C4C00000C2C00000C0C00000C4
:10003000BEC000001DC20000BAC00000B8C0000071
:10004000B6C00000B4C00000B2C00000B0C00000E4
:10005000AEC00000ACC00000AAC00000A8C00000F4
:10006000A6C00000A4C00000A2C00000A0C0000004
:100070009EC000009CC000009AC0000098C0000014
:1000800096C0000094C0000092C0000090C0000024
:100090008EC000008CC000008AC0000088C0000034
:1000A00086C0000084C0000082C0000080C0000044
:1000B0007EC000007CC00000FEC1000078C00000CF
:1000C00076C0000074C0000072C0000070C0000064
:1000D0006EC000006CC000006AC0000068C0000074
:1000E00066C0000064C0000062C0000060C0000084
:1000F0005EC000005CC000005AC0000058C0000094
:1001000056C0000054C0000052C0000050C00000A3
:100110004EC000004CC000004AC000005AC00000A1
:1001200086C00000B2C00000DEC0000040C0000079
:100130003EC000003CC000003AC0000038C00000D3
:1001400036C0000034C0000032C0000030C00000E3
:100150002EC000002CC000002AC0000028C00000F3
:1001600026C0000024C0000022C0000020C0000003
:100170001EC000001CC0000011241FBECFEFCDBF69
:10018000D7E2DEBF10E2A0E0B0E2EAE3F5E002C0B1
:1001900005900D92A030B107D9F720E2A0E0B0E2BF
:1001A00001C01D92AD30B207E1F7B3D1C4C128CF71
:1001B00008958FEF80937000809371008093720098
:1001C0008093730080937400809375008093760011
:1001D00008951F920F920FB60F9211242F933F9301
:1001E0004F935F936F937F938F939F93AF93BF933F
:1001F000EF93FF934091240250912502E0910B2050
:10020000F0910C2061E080E092E00995FF91EF9180
:10021000BF91AF919F918F917F916F915F914F911E
:100220003F912F910F900FBE0F901F9018951F9226
:100230000F920FB60F9211242F933F934F935F931A
:100240006F937F938F939F93AF93BF93EF93FF939E
:1002500040912C0250912D02E0910B20F0910C2046
:1002600062E080E092E00995FF91EF91BF91AF913C
:100270009F918F917F916F915F914F913F912F91BE
:100280000F900FBE0F901F9018951F920F920FB6F0
:100290000F9211242F933F934F935F936F937F930C
:1002A0008F939F93AF93BF93EF93FF93409134024B
:1002B00050913502E0910B20F0910C2064E080E039
:1002C00092E00995FF91EF91BF91AF919F918F912E
:1002D0007F916F915F914F913F912F910F900FBE42
:1002E0000F901F9018951F920F920FB60F92112426
:1002F0002F933F934F935F936F937F938F939F932E
:10030000AF93BF93EF93FF9340913C0250913D0216
:10031000E0910B20F0910C2068E080E092E00995DC
:10032000FF91EF91BF91AF919F918F917F916F91CD
:100330005F914F913F912F910F900FBE0F901F90A3
:100340001895CF93DF93E0910020F09101208481F4
:1003500083FF08C08860848383E0838386EF809373
:100360000A2083C0982F947131F083E083838FEF4C
:1003700080930A207AC086FF43C0C0E0D0E2AA8101
:10038000BB818C819D8114962D913C91159782178C
:1003900093076CF49C012F5F3F4F20930420309310
:1003A0000520A80FB91F11968C9187835EC080919C
:1003B00006209091072018962D913C91199782174D
:1003C0009307C8F420910820222321F086818160C0
:1003D00086834BC016962D913C911797AC014F5FC9
:1003E0005F4F4093062050930720D901A80FB91FF3
:1003F0008C9187833AC083E0838310920A2035C0B2
:10040000882384F5A0E0B0E21296CD91DC91139799
:1004100016968D919C911797288539858217930799
:10042000D8F46E817F819C012F5F3F4F209306207F
:10043000309307204781DB01A80FB91F4C938885B3
:1004400099852817390718F482E083830EC087E066
:10045000838310920A2009C083E0838389EF80930D
:100460000A2003C08BEF80930A20DF91CF9108957B
:100470001F920F920FB60F9211242F933F934F9319
:100480005F936F937F938F939F93AF93BF93EF93FC
:10049000FF9357DFFF91EF91BF91AF919F918F91A4
:1004A0007F916F915F914F913F912F910F900FBE70
:1004B0000F901F9018951F920F920FB60F92112454
:1004C0002F933F934F935F936F937F938F939F935C
:1004D000AF93BF93EF93FF9334DFFF91EF91BF9101
:1004E000AF919F918F917F916F915F914F913F91CC
:1004F0002F910F900FBE0F901F90189504C0615060
:100500007109810991096115710581059105B9F795
:1005100008954FDE4DDEE0E4F6E080E481838583DC
:1005200000E416E0C0E4F801C78366E176E185E007
:0A05300090E0E4DFF8CFF894FFCF6D
:00000001FF
