S0100000636F64652D6D63752E7372656307
S1130000BBC00000D4C00000D2C00000D0C00000BB
S1130010CEC00000CCC00000CAC00000C8C00000B0
S1130020C6C00000C4C00000C2C00000C0C00000C0
S1130030BEC000004CC20000BAC00000B8C000003E
S1130040B6C00000B4C00000B2C00000B0C00000E0
S1130050AEC00000ACC00000AAC00000A8C00000F0
S1130060A6C00000A4C00000A2C00000A0C0000000
S11300709EC000009CC000009AC0000098C0000010
S113008096C0000094C0000092C0000090C0000020
S11300908EC000008CC000008AC0000088C0000030
S11300A086C0000084C0000082C0000080C0000040
S11300B07EC000007CC000002DC2000078C000009B
S11300C076C0000074C0000072C0000070C0000060
S11300D06EC000006CC000006AC0000068C0000070
S11300E066C0000064C0000062C0000060C0000080
S11300F05EC000005CC000005AC0000058C0000090
S113010056C0000054C0000052C0000050C000009F
S11301104EC000004CC000004AC0000089C000006E
S1130120B5C00000E1C000000DC1000040C00000E7
S11301303EC000003CC000003AC0000038C00000CF
S113014036C0000034C0000032C0000030C00000DF
S11301502EC000002CC000002AC0000028C00000EF
S113016026C0000024C0000022C0000020C00000FF
S11301701EC000001CC0000011241FBECFEFCDBF65
S1130180D7E2DEBF10E2A0E0B0E2EEECF9E002C09C
S113019005900D92A631B107D9F720E2A6E1B0E2AD
S11301A001C01D92A332B207E1F7DAD30EC428CFFF
S11301B060E183E027D06EE070E280EA98E0DCD270
S11301C060E184E01FD067E070E280EA99E0D4D275
S11301D060E185E017D060E070E280EA9AE0CCC28A
S11301E0089508958FEF8093700080937100809339
S11301F072008093730080937400809375008093E1
S113020076000895CF93DF931F92CDB7DEB79FB7E3
S11302109983F8949981E82FF0E0E059FF4F6095B5
S11302208081682360839FBF0F90DF91CF910895F1
S11302301F920F920FB60F9211242F933F934F9357
S11302405F936F937F938F939F93AF93BF93EF933A
S1130250FF934091240250912502E0912120F091D6
S1130260222061E080E092E00995FF91EF91BF9137
S1130270AF919F918F917F916F915F914F913F913A
S11302802F910F900FBE0F901F9018951F920F92F1
S11302900FB60F9211242F933F934F935F936F9355
S11302A07F938F939F93AF93BF93EF93FF9340916B
S11302B02C0250912D02E0912120F091222062E045
S11302C080E092E00995FF91EF91BF91AF919F91EA
S11302D08F917F916F915F914F913F912F910F90EB
S11302E00FBE0F901F9018951F920F920FB60F928A
S11302F011242F933F934F935F936F937F938F9327
S11303009F93AF93BF93EF93FF9340913402509127
S11303103502E0912120F091222064E080E092E017
S11303200995FF91EF91BF91AF919F918F917F912B
S11303306F915F914F913F912F910F900FBE0F904E
S11303401F9018951F920F920FB60F9211242F939E
S11303503F934F935F936F937F938F939F93AF9349
S1130360BF93EF93FF9340913C0250913D02E09183
S11303702120F091222068E080E092E00995FF912D
S1130380EF91BF91AF919F918F917F916F915F9109
S11303904F913F912F910F900FBE0F901F90189582
S11303A0CF93DF93E0911620F0911720848183FF8F
S11303B008C08860848383E0838386EF8093202051
S11303C083C0982F947131F083E083838FEF8093FF
S11303D020207AC086FF43C0C6E1D0E2AA81BB8157
S11303E08C819D8114962D913C91159782179307CA
S11303F06CF49C012F5F3F4F20931A2030931B20F5
S1130400A80FB91F11968C9187835EC080911C2020
S113041090911D2018962D913C911997821793075E
S1130420C8F420911E20222321F0868181608683D6
S11304304BC016962D913C911797AC014F5F5F4FBF
S113044040931C2050931D20D901A80FB91F8C91F3
S113045087833AC083E083831092202035C08823A9
S113046084F5A6E1B0E21296CD91DC91139716962D
S11304708D919C9117972885398582179307D8F415
S11304806E817F819C012F5F3F4F20931C2030930E
S11304901D204781DB01A80FB91F4C9388859985DE
S11304A02817390718F482E083830EC087E083831A
S11304B01092202009C083E0838389EF8093202059
S11304C003C08BEF80932020DF91CF9108951F927A
S11304D00F920FB60F9211242F933F934F935F9374
S11304E06F937F938F939F93AF93BF93EF93FF93F8
S11304F057DFFF91EF91BF91AF919F918F917F91C2
S11305006F915F914F913F912F910F900FBE0F907C
S11305101F9018951F920F920FB60F9211242F93CC
S11305203F934F935F936F937F938F939F93AF9377
S1130530BF93EF93FF9334DFFF91EF91BF91AF919E
S11305409F918F917F916F915F914F913F912F91E7
S11305500F900FBE0F901F9018954F925F926F925D
S11305607F928F929F92AF92BF92EF92FF920F93DE
S11305701F93CF937C014A015B0128013901FC01DF
S1130580848182FF16C0D901C801689412F8B69517
S1130590A795979587951694D1F7B901A801032ECD
S11305A036E176956795579547953A95D1F7302D6D
S11305B015C0D901C801689413F8B695A795979505
S11305C087951694D1F7B901A801032E37E17695E2
S11305D06795579547953A95D1F7302D8815990524
S11305E0AA05BB0508F4A2C084169506A606B7069C
S11305F008F49EC0F701848182FD04C0880C991C14
S1130600AA1CBB1CC301B201A5019401BCD12F3F9C
S113061031054105510508F48DC08FEF90E0A0E04D
S1130620B0E0C9EF05C0281739074A075B0758F03F
S1130630880F991FAA1FBB1FCD3F0CF48160CF5FA9
S1130640C73089F74DC0CC230CF04AC0D501C40192
S1130650880F991FAA1FBB1F880F991FAA1FBB1FB2
S1130660880F991FAA1FBB1F481A590A6A0A7B0AD6
S1130670CE3FECF48DEF9FEF8C1B9109C7FD939552
S113068004C0440C551C661C771C8A95D2F7D5010E
S1130690C401B695A79597958795BC01CD01640DC6
S11306A0751D861D971DA50194016DD135C083E08C
S11306B08C0FA501940104C0220F331F441F551F42
S11306C08A95D2F7DA01C901B695A79597958795CA
S11306D0BC01CD01640D751D861D971D54D11CC030
S11306E083E08C0FA501940104C0220F331F441F23
S11306F0551F8A95D2F7DA01C901B695A795979542
S11307008795BC01CD01640D751D861D971D3BD1D8
S11307102150310941095109832F8F70C295C07F3F
S1130720C82BF701C783268381E018C080E016C078
S113073080E014C0D501C401880F991FAA1FBB1FF4
S1130740880F991FAA1FBB1F880F991FAA1FBB1FC1
S1130750481A590A6A0A7B0AC9EF8CCFCF911F91B4
S11307600F91FF90EF90BF90AF909F908F907F90EC
S11307706F905F904F9008950F931F93CF93DF93E3
S1130780EC018B01009709F4BEC0803C910521F473
S113079060E180E037DDB7C0C11584E0D80721F4FB
S11307A064E080E02FDDAFC0C038E1E0DE0721F473
S11307B062E080E027DDA7C0C115F1E0DF0721F486
S11307C061E080E01FDD9FC0C03883E0D80721F4DA
S11307D061E081E017DD97C0C115E2E0DE0721F496
S11307E062E081E00FDD8FC0C032F3E0DF0721F467
S11307F064E082E007DD87C0C11588E0D80721F4F2
S113080061E083E0FFDC7FC0C115E9E0DE0721F48D
S113081061E084E0F7DC77C0C115FAE0DF0721F47A
S113082061E085E0EFDC6FC0C03488E0D80721F4D4
S113083062E083E0E7DC67C0C034E9E0DE0721F46E
S113084062E084E0DFDC5FC0C039F8E0DF0721F458
S113085064E083E0D7DC57C0C03989E0D80721F4CD
S113086064E084E0CFDC4FC0C039EAE0DE0721F465
S113087064E085E0C7DC47C0C03CF8E0DF0721F452
S113088068E083E0BFDC3FC0C03C89E0D80721F4C6
S113089068E084E0B7DC37C0C03AE8E0DE0721F462
S11308A060E183E0AFDC2FC0C03AF9E0DF0721F458
S11308B060E184E0A7DC27C0C03A8AE0D80721F4CD
S11308C060E185E09FDC1FC0C03BE8E0DE0721F467
S11308D060E283E097DC17C0C03BF9E0DF0721F456
S11308E060E284E08FDC0FC0C03884E0D80721F4D4
S11308F060E483E087DC07C0C03AE4E0DE0719F473
S113090060E485E07FDC8D818F738D83F8019581B0
S11309108481892B9681911198E0892B8D83F8012C
S1130920408151816281738100E814E82EE130E056
S1130930CE0113DE9C8198609C839C8190619C8392
S1130940DF91CF911F910F91089504C061507109F7
S1130950810991096115710581059105B9F708951A
S113096041DC3FDC25DCE0E4F6E080E48183858340
S113097000E416E0C0E4F801C78366E176E185E0AF
S113098090E0E3DFF8CFA1E21A2EAA1BBB1BFD0106
S11309900DC0AA1FBB1FEE1FFF1FA217B307E4075A
S11309A0F50720F0A21BB30BE40BF50B661F771FB2
S11309B0881F991F1A9469F7609570958095909592
S11109C09B01AC01BD01CF010895F894FFCF57
S11309CE8025000003000080250000030000802520
S10909DE0000030000000C
S9030000FC
